{
  "_format": "hh-sol-artifact-1",
  "contractName": "FHECoinFlip",
  "sourceName": "contracts/FHECoinFlip.sol",
  "abi": [
    {
      "anonymous": false,
      "inputs": [
        {
          "indexed": true,
          "internalType": "uint256",
          "name": "gameId",
          "type": "uint256"
        },
        {
          "indexed": true,
          "internalType": "address",
          "name": "player",
          "type": "address"
        }
      ],
      "name": "ChoiceCommitted",
      "type": "event"
    },
    {
      "anonymous": false,
      "inputs": [
        {
          "indexed": true,
          "internalType": "uint256",
          "name": "gameId",
          "type": "uint256"
        },
        {
          "indexed": true,
          "internalType": "address",
          "name": "player1",
          "type": "address"
        },
        {
          "indexed": false,
          "internalType": "uint256",
          "name": "betAmount",
          "type": "uint256"
        }
      ],
      "name": "GameCreated",
      "type": "event"
    },
    {
      "anonymous": false,
      "inputs": [
        {
          "indexed": true,
          "internalType": "uint256",
          "name": "gameId",
          "type": "uint256"
        },
        {
          "indexed": true,
          "internalType": "address",
          "name": "winner",
          "type": "address"
        },
        {
          "indexed": false,
          "internalType": "uint256",
          "name": "prize",
          "type": "uint256"
        }
      ],
      "name": "GameFinished",
      "type": "event"
    },
    {
      "anonymous": false,
      "inputs": [
        {
          "indexed": true,
          "internalType": "uint256",
          "name": "gameId",
          "type": "uint256"
        },
        {
          "indexed": false,
          "internalType": "uint8",
          "name": "coinResult",
          "type": "uint8"
        },
        {
          "indexed": true,
          "internalType": "address",
          "name": "winner",
          "type": "address"
        }
      ],
      "name": "GameRevealed",
      "type": "event"
    },
    {
      "anonymous": false,
      "inputs": [
        {
          "indexed": true,
          "internalType": "uint256",
          "name": "gameId",
          "type": "uint256"
        },
        {
          "indexed": true,
          "internalType": "address",
          "name": "player2",
          "type": "address"
        }
      ],
      "name": "PlayerJoined",
      "type": "event"
    },
    {
      "inputs": [],
      "name": "ACTION_TIMEOUT",
      "outputs": [
        {
          "internalType": "uint256",
          "name": "",
          "type": "uint256"
        }
      ],
      "stateMutability": "view",
      "type": "function"
    },
    {
      "inputs": [],
      "name": "MIN_BET",
      "outputs": [
        {
          "internalType": "uint256",
          "name": "",
          "type": "uint256"
        }
      ],
      "stateMutability": "view",
      "type": "function"
    },
    {
      "inputs": [],
      "name": "WAITING_TIMEOUT",
      "outputs": [
        {
          "internalType": "uint256",
          "name": "",
          "type": "uint256"
        }
      ],
      "stateMutability": "view",
      "type": "function"
    },
    {
      "inputs": [
        {
          "internalType": "uint256",
          "name": "gameId",
          "type": "uint256"
        }
      ],
      "name": "cancelGame",
      "outputs": [],
      "stateMutability": "nonpayable",
      "type": "function"
    },
    {
      "inputs": [],
      "name": "createGame",
      "outputs": [
        {
          "internalType": "uint256",
          "name": "",
          "type": "uint256"
        }
      ],
      "stateMutability": "payable",
      "type": "function"
    },
    {
      "inputs": [],
      "name": "gameCounter",
      "outputs": [
        {
          "internalType": "uint256",
          "name": "",
          "type": "uint256"
        }
      ],
      "stateMutability": "view",
      "type": "function"
    },
    {
      "inputs": [
        {
          "internalType": "uint256",
          "name": "",
          "type": "uint256"
        }
      ],
      "name": "games",
      "outputs": [
        {
          "internalType": "uint256",
          "name": "gameId",
          "type": "uint256"
        },
        {
          "internalType": "address",
          "name": "player1",
          "type": "address"
        },
        {
          "internalType": "address",
          "name": "player2",
          "type": "address"
        },
        {
          "internalType": "uint256",
          "name": "betAmount",
          "type": "uint256"
        },
        {
          "internalType": "euint8",
          "name": "player1Choice",
          "type": "bytes32"
        },
        {
          "internalType": "euint8",
          "name": "player2Choice",
          "type": "bytes32"
        },
        {
          "internalType": "uint8",
          "name": "player1ChoiceRevealed",
          "type": "uint8"
        },
        {
          "internalType": "uint8",
          "name": "player2ChoiceRevealed",
          "type": "uint8"
        },
        {
          "internalType": "uint8",
          "name": "coinResult",
          "type": "uint8"
        },
        {
          "internalType": "bool",
          "name": "player1Committed",
          "type": "bool"
        },
        {
          "internalType": "bool",
          "name": "player2Committed",
          "type": "bool"
        },
        {
          "internalType": "bool",
          "name": "isRevealed",
          "type": "bool"
        },
        {
          "internalType": "address",
          "name": "winner",
          "type": "address"
        },
        {
          "internalType": "enum FHECoinFlip.GameStatus",
          "name": "status",
          "type": "uint8"
        },
        {
          "internalType": "uint256",
          "name": "createdAt",
          "type": "uint256"
        },
        {
          "internalType": "uint256",
          "name": "lastActionAt",
          "type": "uint256"
        }
      ],
      "stateMutability": "view",
      "type": "function"
    },
    {
      "inputs": [
        {
          "internalType": "uint256",
          "name": "gameId",
          "type": "uint256"
        }
      ],
      "name": "getGameInfo",
      "outputs": [
        {
          "internalType": "address",
          "name": "player1",
          "type": "address"
        },
        {
          "internalType": "address",
          "name": "player2",
          "type": "address"
        },
        {
          "internalType": "uint256",
          "name": "betAmount",
          "type": "uint256"
        },
        {
          "internalType": "bool",
          "name": "player1Committed",
          "type": "bool"
        },
        {
          "internalType": "bool",
          "name": "player2Committed",
          "type": "bool"
        },
        {
          "internalType": "bool",
          "name": "isRevealed",
          "type": "bool"
        },
        {
          "internalType": "uint8",
          "name": "coinResult",
          "type": "uint8"
        },
        {
          "internalType": "address",
          "name": "winner",
          "type": "address"
        },
        {
          "internalType": "enum FHECoinFlip.GameStatus",
          "name": "status",
          "type": "uint8"
        }
      ],
      "stateMutability": "view",
      "type": "function"
    },
    {
      "inputs": [
        {
          "internalType": "uint256",
          "name": "gameId",
          "type": "uint256"
        }
      ],
      "name": "getMyChoice",
      "outputs": [
        {
          "internalType": "euint8",
          "name": "",
          "type": "bytes32"
        }
      ],
      "stateMutability": "view",
      "type": "function"
    },
    {
      "inputs": [
        {
          "internalType": "uint256",
          "name": "gameId",
          "type": "uint256"
        }
      ],
      "name": "joinGame",
      "outputs": [],
      "stateMutability": "payable",
      "type": "function"
    },
    {
      "inputs": [
        {
          "internalType": "uint256",
          "name": "gameId",
          "type": "uint256"
        }
      ],
      "name": "leaveGame",
      "outputs": [],
      "stateMutability": "nonpayable",
      "type": "function"
    },
    {
      "inputs": [
        {
          "internalType": "address",
          "name": "",
          "type": "address"
        }
      ],
      "name": "playerActiveGame",
      "outputs": [
        {
          "internalType": "uint256",
          "name": "",
          "type": "uint256"
        }
      ],
      "stateMutability": "view",
      "type": "function"
    },
    {
      "inputs": [],
      "name": "protocolId",
      "outputs": [
        {
          "internalType": "uint256",
          "name": "",
          "type": "uint256"
        }
      ],
      "stateMutability": "pure",
      "type": "function"
    },
    {
      "inputs": [
        {
          "internalType": "uint256",
          "name": "gameId",
          "type": "uint256"
        },
        {
          "internalType": "uint8",
          "name": "choice",
          "type": "uint8"
        }
      ],
      "name": "submitChoice",
      "outputs": [],
      "stateMutability": "nonpayable",
      "type": "function"
    }
  ],
  "bytecode": "0x608060405234610194575f6060610014610198565b8281528260208201528260408201520152731364cbbf2cdf5032c47d8226a6f6fbd2afcdacac6060610044610198565b7350157cffd6bbfa2dece204a89ec419c23ef5755d815273e3a9105a3a932253a70f126eb1e3b589c643dd24602082015273a02cda4ca3a71d7c46997716f4283aa851c28812604082015201527350157cffd6bbfa2dece204a89ec419c23ef5755d60018060a01b03195f51602061180d5f395f51905f525416175f51602061180d5f395f51905f525573e3a9105a3a932253a70f126eb1e3b589c643dd2460018060a01b03195f5160206117cd5f395f51905f525416175f5160206117cd5f395f51905f525573a02cda4ca3a71d7c46997716f4283aa851c2881260018060a01b03195f5160206117ed5f395f51905f525416175f5160206117ed5f395f51905f5255731364cbbf2cdf5032c47d8226a6f6fbd2afcdacac60018060a01b03195f5160206117ad5f395f51905f525416175f5160206117ad5f395f51905f52556040516115e190816101cc8239f35b5f80fd5b60405190608082016001600160401b038111838210176101b757604052565b634e487b7160e01b5f52604160045260245ffdfe6080806040526004361015610012575f80fd5b5f905f3560e01c908163117a5b901461107657508063201f6313146108f35780632e0be39a146108d65780633feef58a1461073457806347e1d5501461067a5780634b79fc441461065d5780636540742f1461063c57806369958ab9146104ff5780637255d7291461038057806380e9ab3214610359578063863df0a114610319578063da1f12ab146102fc578063efaa55a0146100d75763f18b1a72146100b8575f80fd5b346100d457806003193601126100d45760206040516102588152f35b80fd5b5060203660031901126100d4576004358082526001602052604082206006810160ff815460d01c1660048110156102e8576102a3576003820154340361025e576001600160a01b0360018301541633146102195733845260026020526040842054806101ce575b50600282016001600160a01b03331673ffffffffffffffffffffffffffffffffffffffff198254161790557a01000000000000000000000000000000000000000000000000000060ff60d01b19825416179055600842910155338252600260205280604083205533907f87969bc7faf902221a147b95ceba76e011c5efb0339a0a8ee7a2bb82d9cfbbd68380a380f35b808552600160205260ff600660408720015460d01c1660048110156102055760031461013e576101ff903390611419565b5f61013e565b634e487b7160e01b86526021600452602486fd5b60405162461bcd60e51b815260206004820152601460248201527f43616e6e6f74206a6f696e206f776e2067616d650000000000000000000000006044820152606490fd5b60405162461bcd60e51b815260206004820152601560248201527f4d757374206d617463682062657420616d6f756e7400000000000000000000006044820152606490fd5b60405162461bcd60e51b815260206004820152601260248201527f47616d65206e6f7420617661696c61626c6500000000000000000000000000006044820152606490fd5b634e487b7160e01b85526021600452602485fd5b50346100d457806003193601126100d45760206040516127118152f35b50346100d45760203660031901126100d4576004356001600160a01b038116809103610355578160409160209352600283522054604051908152f35b5080fd5b50346100d45760203660031901126100d457602061037860043561132b565b604051908152f35b50806003193601126100d457655af3107a400034106104ba57338152600260205260408120548061046f575b5080545f19811461045b5760209160016040920191818380935582815260018552818120838155600181016001600160a01b03331673ffffffffffffffffffffffffffffffffffffffff198254161790553460038201556006810160ff60d01b198154169055426007820155600842910155338152600285522055604051348152817f7dfb67e9ff596fca4da65c7eedb128cd1aac553af54b3c0cb733625a2480d8bd843393a3604051908152f35b634e487b7160e01b82526011600452602482fd5b808252600160205260ff600660408420015460d01c1660048110156104a6576003146103ac576104a0903390611419565b5f6103ac565b634e487b7160e01b83526021600452602483fd5b60405162461bcd60e51b815260206004820152600b60248201527f42657420746f6f206c6f770000000000000000000000000000000000000000006044820152606490fd5b50346100d45760203660031901126100d45760043581526001602052604081206006810160ff815460d01c166004811015610628576105e35760018201916001600160a01b03835416330361059e57838080939260036001600160a01b0361059b978496600360d01b60ff60d01b1982541617905581815416855260026020528460408120555416910154905af16105956111bc565b506112df565b80f35b60405162461bcd60e51b815260206004820152601760248201527f4f6e6c792063726561746f722063616e2063616e63656c0000000000000000006044820152606490fd5b60405162461bcd60e51b815260206004820152601460248201527f47616d6520616c726561647920737461727465640000000000000000000000006044820152606490fd5b634e487b7160e01b84526021600452602484fd5b50346100d457806003193601126100d4576020604051655af3107a40008152f35b50346100d457806003193601126100d457602060405161012c8152f35b50346100d45760203660031901126100d45760406101209160043581526001602052206107326001600160a01b03600183015416916001600160a01b036002820154169060066003820154910154916040519485526020850152604084015260ff8160181c161515606084015260ff8160201c161515608084015260ff8160281c16151560a084015260ff8160101c1660c08401526001600160a01b038160301c1660e084015260ff61010084019160d01c16611179565bf35b50346100d45760203660031901126100d45760043580825260016020526040822060018101906001600160a01b03825416331480156108c0575b1561087b57600681019260ff845460d01c166004811015610205576108365733855260026020526040852054036107f157839133835260026020528260408120556001600160a01b0333915416146107c4575080f35b8180600381936107ec96600360d01b60ff60d01b198254161790550154335af16105956111bc565b5f8180f35b60405162461bcd60e51b815260206004820152601460248201527f4e6f7420796f7572206163746976652067616d650000000000000000000000006044820152606490fd5b60405162461bcd60e51b815260206004820152601c60248201527f43616e206f6e6c79206c656176652077616974696e672067616d6573000000006044820152606490fd5b60405162461bcd60e51b815260206004820152601960248201527f4e6f74206120706c6179657220696e20746869732067616d65000000000000006044820152606490fd5b50336001600160a01b036002830154161461076e565b50346100d457806003193601126100d45760209054604051908152f35b5034610dd0576040366003190112610dd05760043560243560ff8116808203610dd057825f52600160205260405f2091600683019283549060ff8260d01c1660048110156110625760010361101d576008810191825461012c8101809111610fa2574211610e49575060018101926001600160a01b03845416331494858015610e2e575b61098090611247565b8015908115610e23575b5015610dd457879415610d045791600493916109be6001600160a01b03946109b960ff8a5460181c1615611293565b611385565b9401849055855463ff00000019166301000000178655429055547f9e7b61f58c47dc699ac88507c4f5bb9f121c03808c5676a8078fe583e4649700546001600160a01b0316929116823b15610d005760448492836040519586948593635ca4b5b160e11b8552600485015260248401525af18015610cf557610cdc575b50505b6040519033837f83e359f891d0a4ccad86acdab41f05e3ed86b2daa1571e0c73b7b2d712e1b8af8680a35460ff8160181c169081610cce575b50610a80578280f35b81835260016020526501000000000060066040852092600184015490600285015460208201924284524460408401528760608401526bffffffffffffffffffffffff199060601b1660808301526bffffffffffffffffffffffff199060601b16609482015260888152610af460a882611186565b5190209201916201000083549160101b169065ff0000ff00001916171781557a02000000000000000000000000000000000000000000000000000060ff60d01b198254161781558183526001602052817f3590395ac4e481733eb64669864891b22363cb53ee3a593302b61a90f28966e960206001600160a01b0360ff816040892060016006820154604051878101914283528a60408301528660f81b9060e81b16606082015260418152610baa606182611186565b51902016610cc3576001015416955b80546601000000000000600160d01b031916603088901b6601000000000000600160d01b03161781555460101c16946040519586521693a38082526001602052604082209060068201600360d01b60ff60d01b198254161781556003830154928360011b9380850460021490151715610caf576001600160a01b037ff5d92df6ae1a0b46d0a0c57c2e1da0d75d7591d2804ad086cb1e27ba67de7aaf92816002848260016020970154168a52818652896040812055015416875260028352866040812055610c9c878080808a87875460301c165af1610c966111bc565b506111fb565b5460301c1693604051908152a35f808280f35b634e487b7160e01b85526011600452602485fd5b600201541695610bb9565b60ff915060201c165f610a77565b81610ce691611186565b610cf157825f610a3b565b8280fd5b6040513d84823e3d90fd5b8380fd5b60029294506001600160a01b039350610d28906109b960ff885460201c1615611293565b9384600583015564010000000064ff0000000019875416178655429055015416906001600160a01b037f9e7b61f58c47dc699ac88507c4f5bb9f121c03808c5676a8078fe583e4649700541691823b15610dd05760445f92836040519586948593635ca4b5b160e11b8552600485015260248401525af18015610dc557610db0575b50610a3e565b610dbd9193505f90611186565b5f915f610daa565b6040513d5f823e3d90fd5b5f80fd5b60405162461bcd60e51b815260206004820152602160248201527f496e76616c69642063686f6963652028303d48656164732c20313d5461696c736044820152602960f81b6064820152608490fd5b60019150145f61098a565b506109806001600160a01b0360028501541633149050610977565b8591879160ff8160181c16155f14610fb6575060028101546001600160a01b031692600391905b80546601000000000000600160d01b031916603086901b6601000000000000600160d01b0316178155600360d01b60ff60d01b198254161790556001600160a01b036001820154165f5260026020525f60408120556001600160a01b036002820154165f5260026020525f60408120550180548060011b9080820460021490151715610fa2575f808080610f0994885af1610c966111bc565b54918260011b9280840460021490151715610fa25760206001600160a01b037ff5d92df6ae1a0b46d0a0c57c2e1da0d75d7591d2804ad086cb1e27ba67de7aaf926040519586521693a360405162461bcd60e51b815260206004820152602160248201527f4f70706f6e656e7420666f726665697465642064756520746f2074696d656f756044820152601d60fa1b6064820152608490fd5b634e487b7160e01b5f52601160045260245ffd5b60201c60ff16610fd85760018101546001600160a01b03169260039190610e70565b60405162461bcd60e51b815260206004820152601660248201527f426f746820706c617965727320636f6d6d6974746564000000000000000000006044820152606490fd5b60405162461bcd60e51b815260206004820152601760248201527f4e6f7420696e20636f6d6d697474696e672070686173650000000000000000006044820152606490fd5b634e487b7160e01b5f52602160045260245ffd5b34610dd0576020366003190112610dd057610200906004355f52600160205260405f2080549061116b6001600160a01b036001830154166001600160a01b03600284015416600384015460048501549060058601549260068701549460086007890154980154988a5260208a015260408901526060880152608087015260a086015260ff811660c086015260ff8160081c1660e086015260ff8160101c1661010086015260ff8160181c16151561012086015260ff8160201c16151561014086015260ff8160281c1615156101608601526001600160a01b038160301c1661018086015260ff6101a086019160d01c16611179565b6101c08301526101e0820152f35b9060048210156110625752565b90601f8019910116810190811067ffffffffffffffff8211176111a857604052565b634e487b7160e01b5f52604160045260245ffd5b3d156111f6573d9067ffffffffffffffff82116111a857604051916111eb601f8201601f191660200184611186565b82523d5f602084013e565b606090565b1561120257565b60405162461bcd60e51b815260206004820152601560248201527f5072697a65207472616e73666572206661696c656400000000000000000000006044820152606490fd5b1561124e57565b60405162461bcd60e51b815260206004820152600c60248201527f4e6f74206120706c6179657200000000000000000000000000000000000000006044820152606490fd5b1561129a57565b60405162461bcd60e51b815260206004820152601160248201527f416c726561647920636f6d6d69747465640000000000000000000000000000006044820152606490fd5b156112e657565b60405162461bcd60e51b815260206004820152600d60248201527f526566756e64206661696c6564000000000000000000000000000000000000006044820152606490fd5b5f52600160205260405f206001600160a01b03600182015416331480801561136a575b61135790611247565b15611363576004015490565b6005015490565b506113576001600160a01b036002840154163314905061134e565b602060ff60446001600160a01b037f9e7b61f58c47dc699ac88507c4f5bb9f121c03808c5676a8078fe583e46497015416935f6040519586948593639cd07acb60e01b8552166004840152600260248401525af1908115610dc5575f916113ea575090565b90506020813d602011611411575b8161140560209383611186565b81010312610dd0575190565b3d91506113f8565b90815f52600160205260405f20916006830160ff815460d01c166004811015611062576003146115ce57805460ff60d01b1916600360d01b1780825560d01c60ff166004811015611062576114bc57505060018201916001600160a01b03808454169216821461148857505050565b5f8080939260036001600160a01b036114ba978496855260026020528460408120555416910154905af16105956111bc565b565b90919260018101936001600160a01b0380865416911681145f1461159f575061151a6001600160a01b036002830154168093906601000000000000600160d01b03196601000000000000600160d01b0383549260301b169116179055565b6003810154938460011b9480860460021490151715610fa2577ff5d92df6ae1a0b46d0a0c57c2e1da0d75d7591d2804ad086cb1e27ba67de7aaf926001600160a01b03600260209482809554165f528186525f60408120550154165f52600283525f60408120556115945f8080808a865af1610c966111bc565b6040519586521693a3565b82546601000000000000600160d01b031916603082901b6601000000000000600160d01b03161790925561151a565b5050505056fea164736f6c634300081b000a9e7b61f58c47dc699ac88507c4f5bb9f121c03808c5676a8078fe583e46497039e7b61f58c47dc699ac88507c4f5bb9f121c03808c5676a8078fe583e46497019e7b61f58c47dc699ac88507c4f5bb9f121c03808c5676a8078fe583e46497029e7b61f58c47dc699ac88507c4f5bb9f121c03808c5676a8078fe583e4649700",
  "linkReferences": {},
  "deployedLinkReferences": {}
}