{
  "_format": "hh-sol-artifact-1",
  "contractName": "FHEPoker",
  "sourceName": "contracts/FHEPoker.sol",
  "abi": [
    {
      "anonymous": false,
      "inputs": [
        {
          "indexed": true,
          "internalType": "uint256",
          "name": "gameId",
          "type": "uint256"
        }
      ],
      "name": "CardsDealt",
      "type": "event"
    },
    {
      "anonymous": false,
      "inputs": [
        {
          "indexed": true,
          "internalType": "uint256",
          "name": "gameId",
          "type": "uint256"
        },
        {
          "indexed": false,
          "internalType": "enum FHEPoker.GameStage",
          "name": "stage",
          "type": "uint8"
        },
        {
          "indexed": false,
          "internalType": "uint8[]",
          "name": "cards",
          "type": "uint8[]"
        }
      ],
      "name": "CommunityCardsRevealed",
      "type": "event"
    },
    {
      "anonymous": false,
      "inputs": [
        {
          "indexed": true,
          "internalType": "uint256",
          "name": "gameId",
          "type": "uint256"
        },
        {
          "indexed": true,
          "internalType": "address",
          "name": "player1",
          "type": "address"
        },
        {
          "indexed": false,
          "internalType": "uint256",
          "name": "buyIn",
          "type": "uint256"
        }
      ],
      "name": "GameCreated",
      "type": "event"
    },
    {
      "anonymous": false,
      "inputs": [
        {
          "indexed": true,
          "internalType": "uint256",
          "name": "gameId",
          "type": "uint256"
        },
        {
          "indexed": true,
          "internalType": "address",
          "name": "winner",
          "type": "address"
        },
        {
          "indexed": false,
          "internalType": "uint256",
          "name": "prize",
          "type": "uint256"
        }
      ],
      "name": "GameFinished",
      "type": "event"
    },
    {
      "anonymous": false,
      "inputs": [
        {
          "indexed": true,
          "internalType": "uint256",
          "name": "gameId",
          "type": "uint256"
        },
        {
          "indexed": true,
          "internalType": "address",
          "name": "player",
          "type": "address"
        },
        {
          "indexed": false,
          "internalType": "string",
          "name": "action",
          "type": "string"
        },
        {
          "indexed": false,
          "internalType": "uint256",
          "name": "amount",
          "type": "uint256"
        }
      ],
      "name": "PlayerAction",
      "type": "event"
    },
    {
      "anonymous": false,
      "inputs": [
        {
          "indexed": true,
          "internalType": "uint256",
          "name": "gameId",
          "type": "uint256"
        },
        {
          "indexed": true,
          "internalType": "address",
          "name": "player2",
          "type": "address"
        }
      ],
      "name": "PlayerJoined",
      "type": "event"
    },
    {
      "inputs": [],
      "name": "ACTION_TIMEOUT",
      "outputs": [
        {
          "internalType": "uint256",
          "name": "",
          "type": "uint256"
        }
      ],
      "stateMutability": "view",
      "type": "function"
    },
    {
      "inputs": [],
      "name": "BIG_BLIND",
      "outputs": [
        {
          "internalType": "uint256",
          "name": "",
          "type": "uint256"
        }
      ],
      "stateMutability": "view",
      "type": "function"
    },
    {
      "inputs": [],
      "name": "MIN_BUY_IN",
      "outputs": [
        {
          "internalType": "uint256",
          "name": "",
          "type": "uint256"
        }
      ],
      "stateMutability": "view",
      "type": "function"
    },
    {
      "inputs": [],
      "name": "SMALL_BLIND",
      "outputs": [
        {
          "internalType": "uint256",
          "name": "",
          "type": "uint256"
        }
      ],
      "stateMutability": "view",
      "type": "function"
    },
    {
      "inputs": [],
      "name": "WAITING_TIMEOUT",
      "outputs": [
        {
          "internalType": "uint256",
          "name": "",
          "type": "uint256"
        }
      ],
      "stateMutability": "view",
      "type": "function"
    },
    {
      "inputs": [
        {
          "internalType": "uint256",
          "name": "gameId",
          "type": "uint256"
        }
      ],
      "name": "call",
      "outputs": [],
      "stateMutability": "nonpayable",
      "type": "function"
    },
    {
      "inputs": [],
      "name": "createGame",
      "outputs": [
        {
          "internalType": "uint256",
          "name": "",
          "type": "uint256"
        }
      ],
      "stateMutability": "payable",
      "type": "function"
    },
    {
      "inputs": [
        {
          "internalType": "uint256",
          "name": "gameId",
          "type": "uint256"
        }
      ],
      "name": "fold",
      "outputs": [],
      "stateMutability": "nonpayable",
      "type": "function"
    },
    {
      "inputs": [],
      "name": "gameCounter",
      "outputs": [
        {
          "internalType": "uint256",
          "name": "",
          "type": "uint256"
        }
      ],
      "stateMutability": "view",
      "type": "function"
    },
    {
      "inputs": [
        {
          "internalType": "uint256",
          "name": "",
          "type": "uint256"
        }
      ],
      "name": "games",
      "outputs": [
        {
          "internalType": "uint256",
          "name": "gameId",
          "type": "uint256"
        },
        {
          "internalType": "address",
          "name": "player1",
          "type": "address"
        },
        {
          "internalType": "address",
          "name": "player2",
          "type": "address"
        },
        {
          "internalType": "uint256",
          "name": "buyIn",
          "type": "uint256"
        },
        {
          "internalType": "uint256",
          "name": "pot",
          "type": "uint256"
        },
        {
          "internalType": "euint8",
          "name": "p1Card1",
          "type": "bytes32"
        },
        {
          "internalType": "euint8",
          "name": "p1Card2",
          "type": "bytes32"
        },
        {
          "internalType": "euint8",
          "name": "p2Card1",
          "type": "bytes32"
        },
        {
          "internalType": "euint8",
          "name": "p2Card2",
          "type": "bytes32"
        },
        {
          "internalType": "uint8",
          "name": "communityCardsRevealed",
          "type": "uint8"
        },
        {
          "internalType": "enum FHEPoker.GameStage",
          "name": "stage",
          "type": "uint8"
        },
        {
          "internalType": "address",
          "name": "currentPlayer",
          "type": "address"
        },
        {
          "internalType": "uint256",
          "name": "player1Bet",
          "type": "uint256"
        },
        {
          "internalType": "uint256",
          "name": "player2Bet",
          "type": "uint256"
        },
        {
          "internalType": "uint256",
          "name": "player1Stack",
          "type": "uint256"
        },
        {
          "internalType": "uint256",
          "name": "player2Stack",
          "type": "uint256"
        },
        {
          "internalType": "address",
          "name": "winner",
          "type": "address"
        },
        {
          "internalType": "bool",
          "name": "isActive",
          "type": "bool"
        },
        {
          "internalType": "uint256",
          "name": "createdAt",
          "type": "uint256"
        },
        {
          "internalType": "uint256",
          "name": "lastActionAt",
          "type": "uint256"
        }
      ],
      "stateMutability": "view",
      "type": "function"
    },
    {
      "inputs": [
        {
          "internalType": "uint256",
          "name": "gameId",
          "type": "uint256"
        }
      ],
      "name": "getGameInfo",
      "outputs": [
        {
          "internalType": "address",
          "name": "player1",
          "type": "address"
        },
        {
          "internalType": "address",
          "name": "player2",
          "type": "address"
        },
        {
          "internalType": "uint256",
          "name": "pot",
          "type": "uint256"
        },
        {
          "internalType": "enum FHEPoker.GameStage",
          "name": "stage",
          "type": "uint8"
        },
        {
          "internalType": "address",
          "name": "currentPlayer",
          "type": "address"
        },
        {
          "internalType": "uint256",
          "name": "player1Stack",
          "type": "uint256"
        },
        {
          "internalType": "uint256",
          "name": "player2Stack",
          "type": "uint256"
        },
        {
          "internalType": "uint8[5]",
          "name": "communityCards",
          "type": "uint8[5]"
        },
        {
          "internalType": "uint8",
          "name": "communityCardsRevealed",
          "type": "uint8"
        }
      ],
      "stateMutability": "view",
      "type": "function"
    },
    {
      "inputs": [
        {
          "internalType": "uint256",
          "name": "gameId",
          "type": "uint256"
        }
      ],
      "name": "getMyCards",
      "outputs": [
        {
          "internalType": "euint8",
          "name": "",
          "type": "bytes32"
        },
        {
          "internalType": "euint8",
          "name": "",
          "type": "bytes32"
        }
      ],
      "stateMutability": "view",
      "type": "function"
    },
    {
      "inputs": [
        {
          "internalType": "uint256",
          "name": "gameId",
          "type": "uint256"
        }
      ],
      "name": "joinGame",
      "outputs": [],
      "stateMutability": "payable",
      "type": "function"
    },
    {
      "inputs": [
        {
          "internalType": "uint256",
          "name": "gameId",
          "type": "uint256"
        }
      ],
      "name": "leaveGame",
      "outputs": [],
      "stateMutability": "nonpayable",
      "type": "function"
    },
    {
      "inputs": [
        {
          "internalType": "address",
          "name": "",
          "type": "address"
        }
      ],
      "name": "playerActiveGame",
      "outputs": [
        {
          "internalType": "uint256",
          "name": "",
          "type": "uint256"
        }
      ],
      "stateMutability": "view",
      "type": "function"
    },
    {
      "inputs": [],
      "name": "protocolId",
      "outputs": [
        {
          "internalType": "uint256",
          "name": "",
          "type": "uint256"
        }
      ],
      "stateMutability": "pure",
      "type": "function"
    },
    {
      "inputs": [
        {
          "internalType": "uint256",
          "name": "gameId",
          "type": "uint256"
        },
        {
          "internalType": "uint256",
          "name": "raiseAmount",
          "type": "uint256"
        }
      ],
      "name": "raise",
      "outputs": [],
      "stateMutability": "nonpayable",
      "type": "function"
    }
  ],
  "bytecode": "0x608060405234610194575f6060610014610198565b8281528260208201528260408201520152731364cbbf2cdf5032c47d8226a6f6fbd2afcdacac6060610044610198565b7350157cffd6bbfa2dece204a89ec419c23ef5755d815273e3a9105a3a932253a70f126eb1e3b589c643dd24602082015273a02cda4ca3a71d7c46997716f4283aa851c28812604082015201527350157cffd6bbfa2dece204a89ec419c23ef5755d60018060a01b03195f516020611f985f395f51905f525416175f516020611f985f395f51905f525573e3a9105a3a932253a70f126eb1e3b589c643dd2460018060a01b03195f516020611f585f395f51905f525416175f516020611f585f395f51905f525573a02cda4ca3a71d7c46997716f4283aa851c2881260018060a01b03195f516020611f785f395f51905f525416175f516020611f785f395f51905f5255731364cbbf2cdf5032c47d8226a6f6fbd2afcdacac60018060a01b03195f516020611f385f395f51905f525416175f516020611f385f395f51905f5255604051611d6c90816101cc8239f35b5f80fd5b60405190608082016001600160401b038111838210176101b757604052565b634e487b7160e01b5f52604160045260245ffdfe60e0806040526004361015610012575f80fd5b5f905f3560e01c9081630a2f16001461175e57508063117a5b90146115f15780632b096926146110215780632e0be39a146110055780633feef58a14610e5b57806347e1d55014610d3d5780634b79fc4414610d2157806356adcb7614610b425780635dfc037e14610b225780637255d729146109ba578063863df0a11461097f578063bff7a00b14610886578063da1f12ab1461086a578063e2681ed014610840578063efaa55a01461011a578063f18b1a72146100fd5763fc4a2a95146100d9575f80fd5b346100fa57806003193601126100fa57602060405166038d7ea4c680008152f35b80fd5b50346100fa57806003193601126100fa5760206040516102588152f35b50602036600319011261071957600435805f52600160205260405f2061014960ff600f83015460a01c16611789565b60ff600a82015460081c16600781101561082c576107e757600381015434036107a2576001600160a01b03600182015416331461075d57335f52600260205260405f205480610731575b50600281016001600160a01b0333166001600160a01b031982541617905534600e820155601142910155335f5260026020528060405f205533817f87969bc7faf902221a147b95ceba76e011c5efb0339a0a8ee7a2bb82d9cfbbd65f80a3805f52600160205260405f20600d8101805490655af3107a3fff19820191821161071d5755600e810190815465b5e620f47fff19810190811161071d5761028e9255655af3107a4000600b82015565b5e620f48000600c820155660110d9316ec0006004820155600a6001600160a01b0360018301541691019062010000600160b01b031962010000600160b01b0383549260101b169116179055565b805f52600160205260405f2060405191600d602084014281528260408601525f60608601523360601b94856080820152607481526102cd6094826118d3565b519020066002810180911161071d5760ff16600d6040516020810190428252846040820152600160608201528660808201526074815261030e6094826118d3565b519020066002810180911161071d5760ff1690600d604051602081019042825285604082015260026060820152876080820152607481526103506094826118d3565b519020066002810180911161071d5760ff16600d604051602081019042825286604082015260036060820152886080820152607481526103916094826118d3565b519020066002810180911161071d576103d06103c36103b660ff6103dd941695611ccb565b9560058901968755611ccb565b9260068801938455611ccb565b9260078701938455611ccb565b9260088601938455549060018601916001600160a01b03835416906001600160a01b037f9e7b61f58c47dc699ac88507c4f5bb9f121c03808c5676a8078fe583e4649700541691823b156107195760445f92836040519586948593635ca4b5b160e11b8552600485015260248401525af1801561070e576106e9575b50906001600160a01b038894939254915416906001600160a01b037f9e7b61f58c47dc699ac88507c4f5bb9f121c03808c5676a8078fe583e4649700541691823b156106d05760448692836040519586948593635ca4b5b160e11b8552600485015260248401525af19081156106c55784916106d4575b5050549060028501916001600160a01b03835416906001600160a01b037f9e7b61f58c47dc699ac88507c4f5bb9f121c03808c5676a8078fe583e4649700541691823b156106d05760448692836040519586948593635ca4b5b160e11b8552600485015260248401525af19081156106c55784916106ac575b50506001600160a01b039054915416906001600160a01b037f9e7b61f58c47dc699ac88507c4f5bb9f121c03808c5676a8078fe583e4649700541691823b1561069d5760448492836040519586948593635ca4b5b160e11b8552600485015260248401525af180156106a157610688575b505b600581101561064e57806004018060041161063a57600d9060405160208101914283528560408301526060820152866080820152607481526105ff6094826118d3565b519020066002810180911161063a579060ff6001921660098260051c86010190815460ff60f88560031b1692831b921b1916179055016105bc565b634e487b7160e01b86526011600452602486fd5b50600a84920161010061ff00198254161790557f3b54117fc881ff244eef1480d834bc0a1cc974076b145521c0c86e0c7851f7b88280a280f35b81610692916118d3565b61069d57835f6105ba565b8380fd5b6040513d84823e3d90fd5b816106b6916118d3565b6106c157825f610549565b8280fd5b6040513d86823e3d90fd5b8580fd5b816106de916118d3565b6106c157825f6104d0565b6001600160a01b0398505f6107029195949392956118d3565b5f979390919293610459565b6040513d5f823e3d90fd5b5f80fd5b634e487b7160e01b5f52601160045260245ffd5b805f52600160205260ff600f60405f20015460a01c161561019357610757903390611a93565b5f610193565b60405162461bcd60e51b815260206004820152601460248201527f43616e6e6f74206a6f696e206f776e2067616d650000000000000000000000006044820152606490fd5b60405162461bcd60e51b815260206004820152601160248201527f4d757374206d61746368206275792d696e0000000000000000000000000000006044820152606490fd5b60405162461bcd60e51b815260206004820152601460248201527f47616d6520616c726561647920737461727465640000000000000000000000006044820152606490fd5b634e487b7160e01b5f52602160045260245ffd5b3461071957602036600319011261071957604061085e6004356119e0565b82519182526020820152f35b34610719575f3660031901126107195760206040516127118152f35b346107195760203660031901126107195761095a600435805f52600160205260405f206108bc60ff600f83015460a01c16611789565b6108d76001600160a01b03600a83015460101c1633146117d5565b6001600160a01b03600182015416803314808015610964575b6108f990611994565b604051604081526004604082015263199bdb1960e21b60608201525f6020820152847ff3d4f57e05aae06b4017c0b2ed81f62aa6f19deef046d6a78ad2a4223858c4f060803393a31561095c5750600201546001600160a01b031690611c13565b005b905090611c13565b506108f96001600160a01b03600285015416331490506108f0565b34610719576020366003190112610719576004356001600160a01b038116809103610719575f526002602052602060405f2054604051908152f35b5f3660031901126107195766038d7ea4c680003410610add57335f52600260205260405f205480610ab1575b505f545f19811461071d57600160209101805f55805f526001825260405f20818155600181016001600160a01b0333166001600160a01b031982541617905534600382015534600d820155600a810161ff00198154169055600f81017401000000000000000000000000000000000000000060ff60a01b19825416179055426010820155601142910155335f52600282528060405f2055604051348152817f7dfb67e9ff596fca4da65c7eedb128cd1aac553af54b3c0cb733625a2480d8bd843393a3604051908152f35b805f52600160205260ff600f60405f20015460a01c16156109e657610ad7903390611a93565b806109e6565b60405162461bcd60e51b815260206004820152600e60248201527f4275792d696e20746f6f206c6f770000000000000000000000000000000000006044820152606490fd5b34610719575f366003190112610719576020604051655af3107a40008152f35b346107195760403660031901126107195760043560243590805f52600160205260405f20610b7960ff600f83015460a01c16611789565b600a810160ff8154610b986001600160a01b038260101c1633146117d5565b60081c16600781101561082c576005610bb19110611821565b60018201546001600160a01b0316338103610caa57506001600160a01b03600283610be387600c610c489701546118c6565b600b820190610bf382548261186d565b91600d8401610c0f848254610c0a8282101561187a565b61186d565b905555610c21600483019182546118c6565b90550154825462010000600160b01b031916911660101b62010000600160b01b0316179055565b6040519160408352600560408401527f7261697365000000000000000000000000000000000000000000000000000000606084015260208301527ff3d4f57e05aae06b4017c0b2ed81f62aa6f19deef046d6a78ad2a4223858c4f060803393a3005b9082610cf66004610cc288600b610d1c9801546118c6565b92600c810193610cd385548261186d565b94600e8301610cea878254610c0a8282101561187a565b905555019182546118c6565b90559062010000600160b01b031962010000600160b01b0383549260101b169116179055565b610c48565b34610719575f36600319011261071957602060405161012c8152f35b346107195760203660031901126107195760a080604051610d5e82826118d3565b3690376004355f52600160205260405f206001600160a01b03600182015416906001600160a01b036002820154166004820154600a83015494600d84015491600e8501549360ff60096040519701548181168852818160081c166020890152818160101c166040890152818160181c16606089015260201c166080870152610de683876118d3565b60405196875260208701526040860152610e096060860160ff8860081c1661177c565b6001600160a01b038660101c16608086015284015260c083015260e082015f905b60058210610e42576101a08460ff8716610180820152f35b60208060019260ff865116815201930191019091610e2a565b3461071957602036600319011261071957600435805f52600160205260405f2090600182016001600160a01b0381541633148015610fef575b15610faa57600a83019160ff835460081c16600781101561082c57610f6557335f52600260205260405f205403610f2057335f5260026020525f60408120556001600160a01b033391541614610ee657005b5f8080600d61095a95829561060061ff0019825416179055600f810160ff60a01b1981541690550154335af1610f1a611909565b50611948565b60405162461bcd60e51b815260206004820152601460248201527f4e6f7420796f7572206163746976652067616d650000000000000000000000006044820152606490fd5b60405162461bcd60e51b815260206004820152601c60248201527f43616e206f6e6c79206c656176652077616974696e672067616d6573000000006044820152606490fd5b60405162461bcd60e51b815260206004820152601960248201527f4e6f74206120706c6179657220696e20746869732067616d65000000000000006044820152606490fd5b50336001600160a01b0360028501541614610e94565b34610719575f3660031901126107195760205f54604051908152f35b3461071957602036600319011261071957600435805f52600160205260405f2061105460ff600f83015460a01c16611789565b60ff600a8201546110726001600160a01b038260101c1633146117d5565b60081c16600781101561082c57600561108b9110611821565b6001600160a01b0360018201541633145f146115b7576004600c82015491600b81016110db6110bc8254809661186d565b8095600d85016110d4838254610c0a8282101561187a565b90556118c6565b90555b016110ea8282546118c6565b90556040519060408252600460408301526318d85b1b60e21b60608301526020820152817ff3d4f57e05aae06b4017c0b2ed81f62aa6f19deef046d6a78ad2a4223858c4f060803393a3805f52600160205260405f20600b810154600c820154145f1461153a57600a015460081c60ff16600781101561082c57600181036112b157505f8181526001602081905260408220600a81018054600b8301859055600c8301949094559181015475ffffffffffffffffffffffffffffffffffffffffffff1990931660109390931b62010000600160b01b031692909217610203179055604051906111da6080836118d3565b60038252602082019060099060603684370160ff8154166111fa84611cbe565b5260019060ff815460081c169084516001101561129d5760ff9160408601525460101c1683516002101561129d57606084015260408051939084019060028552604060208601525190819052606084019291905f5b81811061128557505050509080827ffc2f3a21a458cd3d07491733a089cc30265ccd181b46b8ec790c7fa581d9753b93500390a2005b835160ff16855260209485019490930192820161124f565b634e487b7160e01b5f52603260045260245ffd5b600281036113b757505f8181526001602081905260408220600a81018054600b8301859055600c8301949094559181015475ffffffffffffffffffffffffffffffffffffffffffff1990931660109390931b62010000600160b01b03169290921761030417905560409081519161132881846118d3565b6001835260ff60096020850193601f198401368637015460181c1661134c84611cbe565b5280519283820191600385526020850152518091526060830191905f5b81811061139e575050509080827ffc2f3a21a458cd3d07491733a089cc30265ccd181b46b8ec790c7fa581d9753b93500390a2005b825160ff16845260209384019390920191600101611369565b600381036114bd57505f8181526001602081905260408220600a81018054600b8301859055600c8301949094559181015475ffffffffffffffffffffffffffffffffffffffffffff1990931660109390931b62010000600160b01b03169290921761040517905560409081519161142e81846118d3565b6001835260ff60096020850193601f198401368637015460201c1661145284611cbe565b5280519283820191600485526020850152518091526060830191905f5b8181106114a4575050509080827ffc2f3a21a458cd3d07491733a089cc30265ccd181b46b8ec790c7fa581d9753b93500390a2005b825160ff1684526020938401939092019160010161146f565b6004146114c657005b8061095a915f526001602052600a60405f200161050061ff0019825416179055805f5260016020526001600160a01b0360405f20600160405160208101904282528560408201526040815261151c6060826118d3565b5190201661152f57600101541690611c13565b600201541690611c13565b61095a9150600a8101906001600160a01b03825460101c166001600160a01b036001830154168091145f14611592575060020154815462010000600160b01b03191660109190911b62010000600160b01b0316179055565b905062010000600160b01b031962010000600160b01b0383549260101b169116179055565b6004600b82015491600c81016115ea6115d28254809661186d565b8095600e85016110d4838254610c0a8282101561187a565b90556110de565b34610719576020366003190112610719576004355f52600160205260405f208080805460018201546001600160a01b031660c05260028201546001600160a01b03166003830154600484015460058501546006860154600787015490600888015492600a89015494600b8a015496600c8b015498600d8c01549a600e8d01549c600f01549d601001549e6011015460805260405160a05260a0515260c05160a0516020015260a0516040015260a0516060015260a0516080015260a05160a0015260a05160c0015260a05160e0015260a051610100015260ff811660a051610120015260a051610140018160081c60ff16906116ec9161177c565b60101c6001600160a01b031660a051610160015260a051610180015260a0516101a0015260a0516101c0015260a0516101e001526001600160a01b03811660a051610200015260a01c60ff16151560a051610220015260a051610240015260805160a051610260015260a05161028090f35b34610719575f366003190112610719578065b5e620f4800060209252f35b90600782101561082c5752565b1561179057565b60405162461bcd60e51b815260206004820152600f60248201527f47616d65206e6f742061637469766500000000000000000000000000000000006044820152606490fd5b156117dc57565b60405162461bcd60e51b815260206004820152600d60248201527f4e6f7420796f7572207475726e000000000000000000000000000000000000006044820152606490fd5b1561182857565b60405162461bcd60e51b815260206004820152601060248201527f42657474696e6720636f6d706c657465000000000000000000000000000000006044820152606490fd5b9190820391821161071d57565b1561188157565b60405162461bcd60e51b815260206004820152601260248201527f496e73756666696369656e7420737461636b00000000000000000000000000006044820152606490fd5b9190820180921161071d57565b90601f8019910116810190811067ffffffffffffffff8211176118f557604052565b634e487b7160e01b5f52604160045260245ffd5b3d15611943573d9067ffffffffffffffff82116118f55760405191611938601f8201601f1916602001846118d3565b82523d5f602084013e565b606090565b1561194f57565b60405162461bcd60e51b815260206004820152600d60248201527f526566756e64206661696c6564000000000000000000000000000000000000006044820152606490fd5b1561199b57565b60405162461bcd60e51b815260206004820152600c60248201527f4e6f74206120706c6179657200000000000000000000000000000000000000006044820152606490fd5b5f52600160205260405f20906001600160a01b036001830154163314808015611a2c575b611a0d90611994565b15611a1f576006600583015492015490565b6008600783015492015490565b50611a0d6001600160a01b0360028501541633149050611a04565b15611a4e57565b60405162461bcd60e51b815260206004820152601560248201527f5072697a65207472616e73666572206661696c656400000000000000000000006044820152606490fd5b90815f52600160205260405f2091600f8301805460ff8160a01c1615611c0c5760ff60a01b1916815560ff600a850161060061ff00198254161781555460081c16600781101561082c57611b3557505060018201916001600160a01b038084541692168214611b0157505050565b5f80809392600d6001600160a01b03611b33978496855260026020528460408120555416910154905af1610f1a611909565b565b6001600160a01b036020918160028760017ff5d92df6ae1a0b46d0a0c57c2e1da0d75d7591d2804ad086cb1e27ba67de7aaf979899019883808b5416911681145f14611c065750828282015416935b8385166001600160a01b03198254161790558260048201995f8b5481611bb0600d8701928354906118c6565b9181611bc2600e8901948554906118c6565b9f55555554165f528186525f60408120550154165f52600283525f6040812055611bfb5f8080808a865af1611bf5611909565b50611a47565b6040519586521693a3565b93611b84565b5050505050565b805f5260016020527ff5d92df6ae1a0b46d0a0c57c2e1da0d75d7591d2804ad086cb1e27ba67de7aaf60206001600160a01b0360405f2094600f86018282166001600160a01b0319825416178155600a870161060061ff001982541617905560ff60a01b19815416905581600260048801975f89549955826001820154165f528186525f60408120550154165f52600283525f6040812055611bfb5f8080808a865af1611bf5611909565b80511561129d5760200190565b602060ff60446001600160a01b037f9e7b61f58c47dc699ac88507c4f5bb9f121c03808c5676a8078fe583e46497015416935f6040519586948593639cd07acb60e01b8552166004840152600260248401525af190811561070e575f91611d30575090565b90506020813d602011611d57575b81611d4b602093836118d3565b81010312610719575190565b3d9150611d3e56fea164736f6c634300081b000a9e7b61f58c47dc699ac88507c4f5bb9f121c03808c5676a8078fe583e46497039e7b61f58c47dc699ac88507c4f5bb9f121c03808c5676a8078fe583e46497019e7b61f58c47dc699ac88507c4f5bb9f121c03808c5676a8078fe583e46497029e7b61f58c47dc699ac88507c4f5bb9f121c03808c5676a8078fe583e4649700",
  "linkReferences": {},
  "deployedLinkReferences": {}
}